:1000000045C0000060C000005EC000005CC0000091
:100010005AC0000058C0000056C0000054C0000084
:1000200052C0000050C000004EC000004CC0000094
:100030004AC0000048C0000046C0000044C00000A4
:1000400042C0000040C000003EC000003CC00000B4
:100050003AC0000038C0000036C0000034C00000C4
:1000600032C0000030C000002EC000002CC00000D4
:100070002AC0000028C0000026C0000024C00000E4
:1000800022C0000020C000001EC0000011241FBEBE
:10009000CFEFD0E1DEBFCDBF11E0A0E0B1E0E6E4FC
:1000A000FCE000E00BBF02C007900D92AA3AB10736
:1000B000D9F721E0AAEAB1E001C01D92AD3CB20738
:1000C000E1F7CFD3BEC59CCFFC017183608353831E
:1000D0004283248381E08583FB01308181E090E0CD
:1000E00002C0880F991F2A95E2F7809583238083A9
:1000F0000895FC01A281B3818C9121E030E004805D
:1001000002C0220F331F0A94E2F7282359F4858195
:10011000813041F4A3EDB0E31197F1F700C0000086
:1001200015820895222369F0858181110CC083ED29
:1001300090E30197F1F700C0000081E0858382E041
:10014000089580E0089580E00895FC01A281B381C4
:100150008C9121E030E0048002C0220F331F0A940A
:10016000E2F7282359F48581813041F4A3EDB0E30F
:100170001197F1F700C00000158208952223A9F01D
:100180008581811114C083ED90E30197F1F700C0E0
:10019000000081E085838091AA019091AB010196D6
:1001A0009093AB018093AA01089580E0089580E0C8
:1001B00008952DD38FEF8ABB20E043E350E064E342
:1001C00070E080EC91E080DF21E043E350E064E305
:1001D00070E086EC91E078DF22E043E350E064E3F6
:1001E00070E08CEA91E070DF23E043E350E064E3E9
:1001F00070E08AEB91E068DF24E043E350E064E3E1
:1002000070E084EB91E060DFE1E6F0E08081806304
:10021000808383B7866083BF83B7886483BF83B7D7
:10022000806283BF87B3806187BB8FB582608FBDDB
:100230008EB588618EBD8FB580688FBD8EB58360A9
:100240008EBD10927A0087E893E197BD86BD089530
:1002500081E0A1D240E051E060E080E0CFD241E116
:1002600051E060E081E0CAD22FEB87E299E02150B3
:1002700080409040E1F700C0000084E090E090935F
:10028000B3018093B20108958091AA019091AB01CE
:10029000019719F48BB388608BBB089580EC91E0D3
:1002A00028DF8230C1F41BBAE2E6F0E0808180638F
:1002B000808342E251E060E080E0A0D243E351E07D
:1002C00060E081E09BD21092B3011092B2011092D3
:1002D000AB011092AA0186EC91E00BDF823011F5A0
:1002E0001BBA8BB381608BBB87B3806187BB80E413
:1002F00081BFE2E6F0E080818F7E80838081806232
:10030000808344E451E060E080E078D245E551E04C
:1003100060E081E073D2B8DF81E090E09093B301B8
:100320008093B2018CEA91E0E4DE823011F51BBAD1
:100330008BB383608BBB87B3806187BB80E881BF51
:10034000E2E6F0E080818F7E80838081806280831E
:1003500046E651E060E080E051D247E751E060E0DE
:1003600081E04CD291DF82E090E09093B3018093E2
:10037000B2018AEB91E0BDDE823011F51BBA8BB37E
:1003800087608BBB87B3806187BB8FEF81BFE2E65D
:10039000F0E080818F7E808380818062808348E866
:1003A00051E060E080E02AD249E951E060E081E07C
:1003B00025D26ADF83E090E09093B3018093B2018D
:1003C00008958091B2019091B3018130910551F16E
:1003D0001CF4892B49F008958230910509F446C038
:1003E000039709F467C008951BBAE2E6F0E0808144
:1003F0008063808387B38F7E87BB42E251E060E0F9
:1004000080E0FCD143E351E060E081E0F7D110925D
:10041000B3011092B2011092AB011092AA0134DF25
:100420003DCF08951BBA8BB381608BBB87B38061CE
:1004300087BB80E481BFE2E6F0E080818F7E80832D
:1004400080818062808344E451E060E080E0D6D126
:1004500045E551E060E081E0D1D181E090E090930A
:10046000B3018093B20110DF19CF08951BBA8BB38B
:1004700083608BBB87B3806187BB80E881BFE2E686
:10048000F0E080818F7E808380818062808346E679
:1004900051E060E080E0B2D147E751E060E081E008
:1004A000ADD182E090E09093B3018093B201ECDE95
:1004B000F5CE08951BBA8BB387608BBB87B3806181
:1004C00087BB8FEF81BFE2E6F0E080818F7E808383
:1004D00080818062808348E851E060E080E08ED1D6
:1004E00049E951E060E081E089D183E090E09093B8
:1004F000B3018093B201C8DED1CE08958091B201DC
:100500009091B30181309105D9F01CF4892B41F011
:1005100008958230910539F1039709F437C00895A1
:1005200042E251E060E080E069D143E351E060E005
:1005300081E064D11092B3011092B201AFCE089560
:1005400044E451E060E080E059D145E551E060E0ED
:1005500081E054D181E090E09093B3018093B201A7
:100560009DDE2FCF089546E651E060E080E046D161
:1005700047E751E060E081E041D182E090E0909374
:10058000B3018093B2018ADE1CCF089548E851E0A0
:1005900060E080E033D149E951E060E081E02ED1B4
:1005A00083E090E09093B3018093B20177DE09CFAE
:1005B00008958BB3877F8BBB8FB58F738FBD0895E5
:1005C0009BB398609BBB9FB590689FBD853B08F02F
:1005D00084EB682F70E080E090E044D220E030E0CF
:1005E00044E353E4A9D120E030E04AEF53E4C6D21B
:1005F00020E030E04AEF52E43BD106D27BBD6ABD39
:100600000895CF93DF9384EB91E09FDD8091AA0161
:100610009091AB01019709F053C0D3DE6FDF80E208
:1006200087BB84EB91E091DD8BB388608BBB40C0CE
:100630002BDEC0E0D0E01AC08BB388608BBB84EBAC
:1006400091E083DDBEDE5ADF8C2F880FB9DF809109
:10065000AA019091AB01019741F050DF1092AB01DC
:100660001092AA01C0E0D0E020C02196CA35D10581
:100670001CF3F8CF8BB388608BBB84EB91E065DD16
:10068000A0DE3CDF8AE590E08C1B9D0B880F98DF95
:100690008091AA019091AB01019731F02FDF109268
:1006A000AB011092AA0104C02196CA35D10514F3FA
:1006B0008091AA019091AB01019709F4B9CF0AC0CA
:1006C00084EB91E042DD7DDE19DF73DF1092AB0138
:1006D0001092AA01DF91CF91089581B3836081BB0D
:1006E00088E480937000089584EA80937400809178
:1006F00074008823E4F7089584E9809374000895D2
:100700008093730084E88093740080917400882340
:10071000E4F70895CF93DF93D82FC62FE5DF8D2F11
:10072000EFDF8C2FEDDFE8DFDF91CF91089560914F
:10073000CC016B7F6093CC018EE4ECDF6091CC0147
:1007400064606093CC018EE4E5DF6091CC016B7F47
:100750006093CC018EE4DEDF8FEF98E10197F1F733
:1007600000C000000895CF93C82F8091CC018F70F6
:100770009C2F907F892B8093CC01D9DF20E1C29FF1
:10078000C00111249091CC019F70892B8093CC01E2
:10079000CEDFCF9108959091CC019C7F9093CC01B6
:1007A000E2CF08959091CC0191609D7F9093CC0110
:1007B000DACF08956091CC0168606093CC018EE43B
:1007C000A9CF08956F70817090E4899F600D112406
:1007D000862F8058E0CF08950F931F93CF938C01FD
:1007E000C0E002C0DFDFCF5FF801EC0FF11D8081B8
:1007F0008111F8CFCF911F910F910895CF93DF937F
:10080000EA01E0DFCE01E8DFDF91CF91089565DFF7
:100810002FEF89EF90E0215080409040E1F700C039
:10082000000083E0B8DF8FE39CE90197F1F700C097
:10083000000083E0B0DF8FE99FE00197F1F700C08F
:10084000000083E0A8DF82E0A6DF88E2A4DF88E082
:10085000A2DF81E0A0DF86E09EDF8CE09CDFAACFF4
:100860000895A7DCF5DC1ADD49DECBDEFCCF50585D
:10087000BB27AA270ED048C139D130F03ED120F095
:1008800031F49F3F11F41EF42EC10EF4E095E7FB06
:1008900024C1E92F4AD180F3BA176207730784078E
:1008A000950718F071F49EF562C10EF4E0950B2ED9
:1008B000BA2FA02D0B01B90190010C01CA01A001B2
:1008C0001124FF27591B99F0593F50F4503E68F10D
:1008D0001A16F040A22F232F342F4427585FF3CF4E
:1008E000469537952795A795F0405395C9F77EF41F
:1008F0001F16BA0B620B730B840BBAF09150A1F068
:10090000FF0FBB1F661F771F881FC2F70EC0BA0FED
:10091000621F731F841F48F4879577956795B79575
:10092000F7959E3F08F0B3CF9395880F08F099276D
:10093000EE0F9795879508950CD0E6C0DED040F075
:10094000D5D030F021F45F3F19F0C7C0511110C16C
:10095000CAC0EBD098F39923C9F35523B1F3951B83
:10096000550BBB27AA2762177307840738F09F5FD0
:100970005F4F220F331F441FAA1FA9F333D00E2E3F
:100980003AF0E0E830D091505040E695001CCAF7AC
:1009900029D0FE2F27D0660F771F881FBB1F261771
:1009A00037074807AB07B0E809F0BB0B802DBF0144
:1009B000FF2793585F4F2AF09E3F510568F08DC086
:1009C000D7C05F3FECF3983EDCF38695779567954B
:1009D000B795F7959F5FC9F7880F911D96958795F5
:1009E00097F90895E1E0660F771F881FBB1F621714
:1009F00073078407BA0720F0621B730B840BBA0BD2
:100A0000EE1F88F7E095089598D088F09F5790F0F2
:100A1000B92F9927B751A0F0D1F0660F771F881F23
:100A2000991F1AF0BA95C9F712C0B13081F09FD062
:100A3000B1E008959CC0672F782F8827B85F39F000
:100A4000B93FCCF3869577956795B395D9F73EF482
:100A500090958095709561957F4F8F4F9F4F08952A
:100A6000E89409C097FB3EF4909580957095619548
:100A70007F4F8F4F9F4F9923A9F0F92F96E9BB27FE
:100A80009395F695879577956795B795F111F8CF7A
:100A9000FAF4BB0F11F460FF1BC06F5F7F4F8F4FE5
:100AA0009F4F16C0882311F096E911C0772321F0DB
:100AB0009EE8872F762F05C0662371F096E8862F73
:100AC00070E060E02AF09A95660F771F881FDAF7CA
:100AD000880F9695879597F9089597F99F6780E80D
:100AE00070E060E008959FEF80EC089500240A9480
:100AF0001616170618060906089500240A941216F9
:100B00001306140605060895092E0394000C11F42B
:100B1000882352F0BB0F40F4BF2B11F460FF04C0D8
:100B20006F5F7F4F8F4F9F4F089557FD9058440F31
:100B3000551F59F05F3F71F04795880F97FB991F3C
:100B400061F09F3F79F087950895121613061406F9
:100B5000551FF2CF4695F1DF08C016161706180686
:100B6000991FF1CF86957105610508940895E89461
:100B7000BB2766277727CB0197F908950BD0C4CF01
:100B8000B5DF28F0BADF18F0952309F0A6CFABCF78
:100B90001124EECFCADFA0F3959FD1F3950F50E05B
:100BA000551F629FF001729FBB27F00DB11D639F1F
:100BB000AA27F00DB11DAA1F649F6627B00DA11DC5
:100BC000661F829F2227B00DA11D621F739FB00D6B
:100BD000A11D621F839FA00D611D221F749F3327DB
:100BE000A00D611D231F849F600D211D822F762F74
:100BF0006A2F11249F5750408AF0E1F088234AF071
:100C0000EE0FFF1FBB1F661F771F881F91505040BC
:100C1000A9F79E3F510570F060CFAACF5F3FECF37C
:100C2000983EDCF3869577956795B795F795E795A8
:100C30009F5FC1F7FE2B880F911D9695879597F9B9
:060C40000895F894FFCFB7
:100C46002048656C6C6F204D6F6465737479212044
:100C560000506C6561736520507265737320427431
:100C66006E0020202053746F70206D6F6465202005
:100C76002020002020506F776572203A20202030F7
:100C8600252020002020203173742053746167656D
:100C960020202020002020506F776572203A2020E7
:100CA600323525202000202020326E6420537461C6
:100CB600676520202020002020506F776572203A3B
:100CC6002020353025202000202020337264205338
:100CD6007461676520202020002020506F776572A0
:0A0CE600203A203130302520200094
:00000001FF
