:1000000045C0000060C000005EC000005CC0000091
:100010005AC0000058C0000056C0000054C0000084
:1000200052C0000050C000004EC000004CC0000094
:100030004AC0000048C0000046C0000044C00000A4
:1000400042C0000040C000003EC000003CC00000B4
:100050003AC0000038C0000036C0000034C00000C4
:1000600032C0000030C000002EC000002CC00000D4
:100070002AC0000028C0000026C0000024C00000E4
:1000800022C0000020C000001EC0000011241FBEBE
:10009000CFEFD0E1DEBFCDBF11E0A0E0B1E0E2EAFA
:1000A000F4E000E00BBF02C007900D92AA3AB1073E
:1000B000D9F721E0AAEAB1E001C01D92A93CB2073C
:1000C000E1F7D7D1ECC19CCFFC01718360835383EE
:1000D0004283248381E08583FB01308181E090E0CD
:1000E00002C0880F991F2A95E2F7809583238083A9
:1000F0000895FC01A281B3818C9121E030E004805D
:1001000002C0220F331F0A94E2F7282359F4858195
:10011000813041F4A3EDB0E31197F1F700C0000086
:1001200015820895222369F0858181110CC083ED29
:1001300090E30197F1F700C0000081E0858382E041
:10014000089580E0089580E0089569D18FEF8ABB1B
:1001500020E043E350E064E370E08CEB91E0B4DF37
:1001600021E043E350E064E370E082EC91E0ACDF37
:1001700022E043E350E064E370E08AEA91E0A4DF28
:1001800023E043E350E064E370E086EB91E09CDF22
:1001900024E043E350E064E370E080EB91E094DF1F
:1001A000E1E6F0E080818063808383B7866083BF6F
:1001B00083B7886483BF83B7806283BF87B380615E
:1001C00087BB089540E051E060E080E01FD141E14D
:1001D00051E060E081E01AC108958CEB91E089DF85
:1001E0008230D1F41BBAE2E6F0E080818063808344
:1001F00042E251E060E080E009D143E351E060E099
:1002000081E004D12FEF8BE792E9215080409040AC
:10021000E1F700C00000D6DF82EC91E06ADF8230B7
:10022000E9F481E0C0D01BBA8BB381608BBB87B38C
:10023000806187BB80E481BFE2E6F0E080818F7D52
:10024000808380818061808344E451E060E080E0CD
:10025000DDD045E551E060E081E0D8D08AEA91E068
:1002600048DF8230F9F481E09ED01BBA8BB3836003
:100270008BBB87B3806187BB80E881BFE2E6F0E09B
:1002800080818F7D808380818061808346E651E01C
:1002900060E080E0BBD047E751E060E081E0B6D0AD
:1002A0001092730086EB91E024DF8230E9F481E064
:1002B0007AD01BBA8BB387608BBB87B3806187BB57
:1002C0008FEF81BFE2E6F0E080818F7D80838081C7
:1002D0008061808348E851E060E080E097D049E9A0
:1002E00051E060E081E092C0089581B3836081BBFA
:1002F00088E480937000089584EA8093740080916C
:1003000074008823E4F7089584E9809374000895C5
:100310008093730084E88093740080917400882334
:10032000E4F70895CF93DF93D82FC62FE5DF8D2F05
:10033000EFDF8C2FEDDFE8DFDF91CF910895609143
:10034000C8016B7F6093C8018EE4ECDF6091C80147
:1003500064606093C8018EE4E5DF6091C8016B7F43
:100360006093C8018EE4DEDF8FEF98E10197F1F72B
:1003700000C000000895CF93C82F8091C8018F70EE
:100380009C2F907F892B8093C801D9DF20E1C29FE9
:10039000C00111249091C8019F70892B8093C801DE
:1003A000CEDFCF9108959091C8019C7F9093C801B2
:1003B000E2CF08959091C80191609D7F9093C8010C
:1003C000DACF08956091C80168606093C8018EE437
:1003D000A9CF08956F70817090E4899F600D1124FA
:1003E000862F8058E0CF08950F931F93CF938C01F1
:1003F000C0E002C0DFDFCF5FF801EC0FF11D8081AC
:100400008111F8CFCF911F910F910895CF93DF9372
:10041000EA01E0DFCE01E8DFDF91CF91089565DFEB
:100420002FEF89EF90E0215080409040E1F700C02D
:10043000000083E0B8DF8FE39CE90197F1F700C08B
:10044000000083E0B0DF8FE99FE00197F1F700C083
:10045000000083E0A8DF82E0A6DF88E2A4DF88E076
:10046000A2DF81E0A0DF86E09EDF8CE09CDFAACFE8
:1004700008956BDEA7DE8FB582608FBD8EB5886173
:100480008EBD8FB580688FBD8EB583608EBD109296
:100490007A0087E893E197BD86BD9FDEFECFF89492
:0204A000FFCF8C
:1004A2002048656C6C6F204D6F64657374792120F0
:1004B20000506C65617365205072657373204274DD
:1004C2006E0020202053746F70206D6F64652020B1
:1004D2002020002020506F776572203A20202030A3
:1004E2002520200020202031737420537461676519
:1004F20020202020002020506F776572203A202093
:10050200323525202000202020326E642053746171
:10051200676520202020002020506F776572203AE6
:1005220020203530252020002020203372642053E3
:100532007461676520202020002020506F7765724B
:0A054200203A20313030252020003F
:00000001FF
